:020000040800F2
:1000000000500020451B0008D51A0008D71A000828
:1000100000000000000000000000000000000000E0
:10002000000000000000000000000000D91A0008D5
:100030000000000000000000DB1A0008DD1A0008C4
:10004000951B0008951B0008951B0008951B0008D0
:10005000951B0008951B0008951B0008951B0008C0
:10006000951B0008951B0008951B0008951B0008B0
:10007000951B0008951B0008951B0008951B0008A0
:10008000951B0008951B0008951B00080000000048
:10009000951B0008951B0008951B0008951B000880
:1000A000951B0008951B0008951B0008951B000870
:1000B000951B0008951B0008951B0008951B000860
:1000C00010B5064C2378002B07D1054B002B02D02E
:1000D000044800E000BF0123237010BD6800002029
:1000E00000000000BC2B0008044B10B5002B03D00F
:1000F0000349044800E000BF10BDC04600000000F6
:100100006C000020BC2B000802B47146490849006D
:10011000095C49008E4402BC7047C0460022430877
:100120008B4274D303098B425FD3030A8B4244D3BF
:10013000030B8B4228D3030C8B420DD3FF22090201
:1001400012BA030C8B4202D31212090265D0030BC0
:100150008B4219D300E0090AC30B8B4201D3CB03B6
:10016000C01A5241830B8B4201D38B03C01A5241F8
:10017000430B8B4201D34B03C01A5241030B8B42FA
:1001800001D30B03C01A5241C30A8B4201D3CB02E5
:10019000C01A5241830A8B4201D38B02C01A5241CA
:1001A000430A8B4201D34B02C01A5241030A8B42CD
:1001B00001D30B02C01A5241CDD2C3098B4201D3E5
:1001C000CB01C01A524183098B4201D38B01C01A63
:1001D000524143098B4201D34B01C01A52410309DA
:1001E0008B4201D30B01C01A5241C3088B4201D389
:1001F000CB00C01A524183088B4201D38B00C01A36
:10020000524143088B4201D34B00C01A5241411A5C
:1002100000D20146524110467047FFE701B5002069
:1002200000F006F802BDC0460029F7D076E7704717
:100230007047C046002B11D1002A0FD1002900D1F0
:10024000002802D00021C943081C07B4024802A1BB
:100250004018029003BDC046D9FFFFFF03B46846B3
:1002600001B5029800F006F8019B9E4602B00CBC56
:100270007047C046F0B557464E464546DE46E0B5A7
:10028000040083B00D00924699468B422FD82CD0A3
:100290004946504600F0AEF829000600200000F064
:1002A000A9F8331A9846203B9B4600D574E0534684
:1002B0005A4693401F005346424693401E00AF42A9
:1002C00029D826D05B46A41BBD41002B00DA79E07B
:1002D000002200230092019301235A469340019388
:1002E000012342469340009319E08242D0D9002274
:1002F0000023009201930C9B002B01D01C605D60D9
:100300000098019903B03CBC90469946A246AB4682
:10031000F0BDA342D6D900220023009201934346A8
:10032000002BE8D0FB0772081A4346467B080EE014
:10033000AB4201D1A2420CD8A41A9D41012024193C
:100340006D410021013E24184D41002E06D0AB42E4
:10035000EED9013E24196D41002EF8D15B4600987C
:10036000019900196941002B22DB2B005A46D3402A
:100370002A004446E2401C005B461500002B2CDBA3
:1003800026009E40330026004746BE403200801AB9
:10039000994100900191AEE7424620239B1A5246B4
:1003A000DA40414613004A468A4017001F4382E75D
:1003B000424620239B1A2A0046469A402300F340D7
:1003C0001343D5E74246202300219B1A00220091C7
:1003D00001920122DA40019282E742462023260060
:1003E0009B1ADE402F00B446974066463B003343DD
:1003F000C9E7C04610B5002903D100F007F8203046
:1004000002E0081C00F002F810BDC0461C210123C8
:100410001B04984201D3000C10391B0A984201D3E7
:10042000000A08391B09984201D30009043902A2C5
:10043000105C40187047C04604030202010101012C
:100440000000000000000000FA21084B10B58900F0
:1004500004001868FFF762FE00F064F80120002233
:100460002100404200F02EF8002010BD00000020C6
:100470004023064A10B5116800200B431360FFF7B4
:10048000E3FF01F0D7FA002010BDC0460020024073
:10049000024A1368013313607047C0469000002081
:1004A000014B18687047C0469000002013B50190BA
:1004B000FFF7F6FF0400FFF7F3FF019B001B9842D4
:1004C000F9D313BD70B58901002814DA0F23C0B227
:1004D0000340083B114A9B089B009B1803221040D5
:1004E0009040FC321500114085408140DC69AC43EE
:1004F0002143D96170BD032583082840A840FC35FD
:100500002E00074A9B009B18C0228640294081404C
:1005100092009C58B44321439950EBE700ED00E072
:1005200000E100E0094A431E012093420DD8C0219A
:10053000074A08485360036A09061B021B0A0B435B
:10054000036200200723906013607047FFFFFF00E5
:1005500010E000E000ED00E0054B1A68042802D12D
:1005600010431860704704218A431A60FAE7C046B6
:1005700010E000E0704710B5FFF7FCFF10BD000071
:10058000F0B5554A0B688218541EA24185B00193FC
:10059000002305320392019ADA4001D105B0F0BD83
:1005A00001259D40019A2A40009200D191E04A68BD
:1005B00094461022644694432200013C022A1FD133
:1005C00007240F271C40A400A740DA0892008218D5
:1005D000166ABE430F69A7403E43166203245E00BD
:1005E000B4408268A243CC68B44022438260624631
:1005F000D206D20F9A404468AC432243426001E0E5
:10060000012CEBD9032634005D00AC406246E44384
:100610003240AA40076827403A430260C26814404B
:100620008A68AA4014436246C460D20051D50125AD
:100630002A4C0F27626B2A431D003540AD00AF40A6
:100640006263274A9C08A400A418A268BA43A027A2
:100650000292FF050022B84210D0224F0132B84268
:100660000CD0214F0132B84208D0204F3200B8429E
:1006700004D01F4E0132B04200D0039AAA40674610
:10068000029D2A43A2601B4A009C1668009DE44319
:100690003543FF0301D43500254067461560566891
:1006A000009D3543BF0301D43500254067465560A2
:1006B0009668009D3543FF0201D43500254067460A
:1006C0009560D568009E2E43BF0201D425402E00C0
:1006D000D66001335FE7C04600E4FFAF0010024080
:1006E000000001400004005000080050000C0050C1
:1006F0000010005000040140002A01D081617047C1
:100700008162FCE7F022174B30B5D96811420BD05B
:1007100000230121144802688A431A4302600068DA
:1007200008405840084030BD8021C0229D6B4905DB
:100730000E4C52010D420AD023681A40C0235B01BF
:100740009A42E5D10A4BC01843424341E1E79D6B11
:10075000294399632168074C0A40996B21409963AA
:10076000ECE7C0460010024000200240007000404C
:100770000040FFFFFFFFFFEFF0B5036885B0040006
:10078000DB074ED423689B0700D59FE02368DB0678
:1007900035D50C23BC4DEA681A4200D0E9E02B683D
:1007A0009B0502D5E369002B50D0E0226B68606A9C
:1007B00012021340984200D8C9E0FFF7A3FF0028B7
:1007C00044D16B68B14A1340626A13436B606A6834
:1007D000236A12021B06120A13436B60636AEA68FB
:1007E000590B802301311B028B401206A849120FBE
:1007F0008A5C0020D340A74A1360FFF725FE2368D8
:100800001B0700D5ECE023685B0700D50FE12368E8
:100810009B0600D590E1A16A002900D0C0E100202C
:1008200015E00C21984DEB680B40082B08D0802375
:10083000EA685B020A408A420BD1EA681A4208D091
:100840002B689B039ED56368002B9BD1012005B0CC
:10085000F0BD62689A4212D12A6813432B60FFF7F9
:100860001FFE80260700B6022B68334200D089E7BE
:10087000FFF716FEC01B6428F6D90320E7E7A02186
:10088000C9028A4205D180222968D2020A432A601D
:10089000E2E7296880480140296029680B400393FA
:1008A000039B7E492B680B402B60002AD7D1FFF7B2
:1008B000F7FD80260700B6022B68334200D161E7BE
:1008C000FFF7EEFDC01B6428F6D9D6E70C216E4D6C
:1008D000EA680A40042A06D0EB680B408B4210D12C
:1008E000EB68DB030DD42B685B0702D5E368012BB3
:1008F000ACD16A6823696A491B020A4013436B60E2
:1009000044E7E2682B68002A10D009218B43134387
:100910002B60FFF7C5FD042607002B683342E8D1A2
:10092000FFF7BEFDC01B0228F7D9A6E701229343BB
:100930002B60FFF7B5FD042607002B68334200D17A
:1009400024E7FFF7ADFDC01B0228F6D995E76B68D9
:100950004E4A134003436B606A68236A12021B0607
:10096000120A13436B60FFF7CDFE002800D135E774
:100970006CE7E369002B20D080232A685B001343D7
:100980002B60FFF78DFD80260700B6002B683342F1
:100990000DD06B683D4A1340626A13436B606A680E
:1009A000236A12021B06120A13436B6027E7FFF744
:1009B00077FDC01B0228E9D95FE72B68394A8026FA
:1009C00013402B60FFF76CFD0700B6002B68334225
:1009D00000D114E7FFF764FDC01B0228F6D94CE7ED
:1009E00062690123284D002A10D02A6D0226134384
:1009F0002B65FFF755FD07002B6D334200D002E752
:100A0000FFF74EFDC01B0228F6D936E72A6D0226F5
:100A10009A432A65FFF744FD07002B6D334200D14E
:100A2000F1E6FFF73DFDC01B0228F6D925E780233C
:100A30000021154D5B05AA6B00911A4204D1AA6BE7
:100A40001343AB63012300938027174E7F00336865
:100A50003B4208D08022A3685200934226D12A6DDF
:100A600013432B6547E033683B433360FFF718FDC2
:100A7000019033683B42EDD1FFF712FD019BC01A94
:100A80006428F6D9F9E6C04600100240FF1FFFFFB8
:100A9000592C000800000020FFFFFEFFFFFFFBFFB6
:100AA000FFE0FFFFFFFEFFFF00700040002B16D1AC
:100AB0002B6D604A802713402B652B6D5E4ABF006B
:100AC00013402B65FFF7ECFC06002B6D3B422AD050
:100AD000FFF7E6FC594B801B9842F6D9CDE6A021E2
:100AE000C9008B420DD18023296DDB000B432B65A0
:100AF0002B6D1A432A65FFF7D3FC80270600BF0041
:100B00000EE02B6D4B4A13402B652B6D4A4A134068
:100B1000A7E7FFF7C5FC494B801B984200D9ACE61C
:100B20002B6D3B42F5D0009B012B00D06FE6AB6BE9
:100B3000434A1340AB636AE6A1690123414D424A2F
:100B4000002918D0A96802261943A960696B0B43D4
:100B50006B638023116A9B010B431362FFF7A0FCB8
:100B60000700AB68334200D055E6FFF799FCC01B85
:100B70000228F6D981E6A96802269943A960136A7A
:100B800032490B401362FFF78BFC0700AB6833421E
:100B900000D140E6FFF784FCC01B0228F6D96CE6C2
:100BA0000C22284D0120EB681340934200D14EE601
:100BB0002B68274A13402B6002292BD1FFF770FCCA
:100BC00080260700B6042B6833421DD1216BE36AEF
:100BD000EA680B431F490A401343626B80241343A6
:100BE000EB6080232A685B0413432B60FFF758FCFB
:100BF0000600A4042B68234200D010E6FFF750FC47
:100C0000801B0228F6D938E6FFF74AFCC01B0228F1
:100C1000D9D932E6FFF744FC80240600A4042B68EF
:100C2000234200D1FBE5FFF73BFC801B0228F6D9ED
:100C300023E6C046FFFEFFFFFFFBFFFF8813000017
:100C4000FFFFFFEF0010024000000140FFDFFFFF49
:100C5000FFFFFFFEFFFF02FF0C22184B10B5D96803
:100C60000A40082A26D00C2A06D0042A1AD11B686A
:100C7000DB0621D4124810BD8A021248120F825C92
:100C80000902D868890F0131C00304D50E485043CA
:100C9000FFF744FAEFE71B68DB0601D50B48F6E7E0
:100CA0000748F4E780205B6800021B045B0F0133F8
:100CB0009840E0E70448DEE70448DCE70010024023
:100CC0000024F400712C000800127A0000093D0095
:100CD000F7B50122534C06002368019113408B4263
:100CE00028D33268930731D4D30737D4012322683D
:100CF00001991A40914200D285E032684A4C53076C
:100D000000D587E0130706D5E26833694749DB0061
:100D10000A401343E360FFF79FFFE368444A1B0662
:100D20001B0FD35CD840434B18600020FFF78CFBAF
:100D300000200AE02368019993430B432360236852
:100D40001340019A9A42CCD00120FEBDF0203649D2
:100D5000CB688343B0680343CB60C5E7324D72680C
:100D60002B68022A19D19B03EED50321EB688B4334
:100D70001343EB60FFF794FB73680700022B19D154
:100D80000C22EB681340082BB0D0FFF789FB2A4BED
:100D9000C01B9842F4D90320D7E7032A02D19B0154
:100DA000E3D4D1E7012A02D15B07DED4CCE79B056F
:100DB000DBD4C9E7032B0CD10C22EB681340934220
:100DC00000D193E7FFF76CFB1B4BC01B9842F3D994
:100DD000E1E7012B11D00C22EB68134200D185E72B
:100DE000FFF75EFB144BC01B9842F4D9D3E7FFF723
:100DF00057FB114BC01B9842CDD80C22EB68134017
:100E0000042BF4D172E722689A43226022681A42C6
:100E10009AD172E7E36809490B40F1680B43E3603C
:100E200070E7C0460020024000100240FFC7FFFFED
:100E3000592C00080000002088130000FFF8FFFF75
:100E4000014B18687047C04600000020044B054A5B
:100E5000DB685B055B0FD35C034A1068D8407047C2
:100E600000100240692C000800000020044B054AD5
:100E7000DB689B045B0FD35C034A1068D840704763
:100E800000100240692C0008000000208223F7B502
:100E900002681B0105001A4248D080230021654CDE
:100EA0005B05A26B00911A4204D1A26B1343A363AA
:100EB000012300938027604E7F0033683B4277D048
:100EC0006968C022080023689203134010408342DF
:100ED00003D1A8680240934209D0C0230A009B02B4
:100EE0001A409A4203D1236801209B0371D4C02287
:100EF000236D9202134000D06CE06968C0230A00A1
:100F00009B021A409A4207D123684C480340C020F4
:100F1000800301400B432360236D1A43009B22652D
:100F2000012B03D1A36B464A1340A3632B68DA0756
:100F300006D503203F49CA6C8243E8680243CA646D
:100F40009A0706D50C203B49CA6C824328690243A4
:100F5000CA645A0706D537493A48CA6C02406869DC
:100F60000243CA641A0706D532493748CA6C0240A0
:100F7000A8690243CA64DA0506D52E493348CA6C0B
:100F80000240E8690243CA645A0606D52949304836
:100F9000CA6C0240686A0243CA6400201B0618D566
:100FA000244A2C49D36C0B40296A0B43D36410E0CC
:100FB00033683B433360FFF773FA019033683B4279
:100FC00000D07DE7FFF76CFA019BC01A6428F5D9C1
:100FD0000320FEBD11408B4202D02968890608D447
:100FE000A9680A40934200D187E72B681B0500D40B
:100FF00083E78022216D206D120302432265226D5A
:10100000124B15480B40024022652365CB0500D4E6
:1010100073E7FFF745FA80270600BF00236D3B42C8
:1010200000D06AE7FFF73CFA0C4B801B9842F5D9D9
:10103000CEE7C0460010024000700040FFFFCFFF27
:10104000FFFFFFEFFFF3FFFFFFCFFFFFFFFFFCFFFF
:10105000FFFFFFFBFFFFF3FFFFFFF7FF8813000019
:1010600070B5102800D1CDE01ED8022800D19EE036
:1010700004D8012800D181E000203BE0042800D101
:10108000A6E00828F8D1C0216A4A8901D36C0B4038
:1010900000D191E0802189018B4200D178E080224B
:1010A00052019342E8D179E040283FD00FD8202860
:1010B000E2D1C02580205F49AD020B6D0A6D400270
:1010C0002A4082420DD19805C00FC00312E0802350
:1010D0005B00984200D19DE080231B019842E8D03C
:1010E000CAE78024A402A24205D102200340181EB0
:1010F00000D0514870BD0020AA42FBD10B682342AA
:10110000F8D0C0220B6880219203134089038B42E0
:1011100008D0934200D18AE080225203934203D147
:101120004648E7E74648E5E74648E3E78020414B85
:10113000C004DA6C10401AD11A689201DAD5DA6864
:101140004148D9689202120F805C0902DA68890F5F
:101150000131D20307D41B68DB0606D43B4B58434E
:10116000FEF7DCFFC6E73A4BF9E7364BF7E702221A
:101170009B681340181EBDD03648BBE703212D4A9B
:10118000D36C0B4002D1FFF771FEB3E7022B03D102
:1011900013680422134027E0012B02D1FFF75CFD06
:1011A000A8E70020032BA5D1106D80058CE70C214A
:1011B000204AD36C0B4002D1FFF748FE9AE7082B78
:1011C000E6D0042BEAD000200C2B00D092E7EBE70E
:1011D000C021184A0901D36C0B40EDD080242401B2
:1011E000A34206D113680340181E00D182E71748B6
:1011F00080E78020C0008342D0D000208B4200D006
:1012000078E7D1E70B4B986B8023DB03184000D1C4
:1012100070E7D1E7C021074A8902D36C0B40CBD0DD
:10122000802189028B42B3D08022520239E70A48DA
:1012300060E7C046001002408890000080841E00D5
:1012400040420F0000093D00712C00080024F4000A
:1012500000127A00006CDC0220A10700F8B505003E
:10126000036882680069196802436869824E024314
:10127000E8690243814801400A431A605A6880497C
:101280000A40E9680A435A60A969B34201D02A6A50
:1012900011439A687B4802400A439A607A4A934213
:1012A00017D10322794BDB6C1340794AD45C0220BE
:1012B000FFF7D6FE2F680300B74266D1082C00D98D
:1012C000D7E02000FEF720FF31D539D559D5D5D547
:1012D0005C00704A934205D10C226C4BDB6C1340CE
:1012E0006D4AE3E76D4A00249342E0D06C4A934292
:1012F000DDD01034B342DAD1C0228021634B120119
:10130000DB6CC90013400C3C8B42D0D004D80024C5
:10131000A342CCD01024CAE78021022409018B42C9
:10132000C5D006349342C2D0F4E7FFF78FFD002406
:101330000300A04206D12000F8BD544B1B68DB0619
:1013400021D4584B03216A68012451439942F2D8B1
:1013500011039942EFD300275608190E180280197D
:1013600079413B00FEF766FF4F4BC2184F4B9A4244
:10137000E1D82B68D8600024DDE7FFF76DFCD6E7E5
:1013800080231B02DEE74A4BDCE78022E969120278
:1013900091423FD1082C3AD82000FEF7B5FE050F48
:1013A00017383038383833006A685B00110050084D
:1013B0001818FEF7B3FE002480B216E0FFF756FDC2
:1013C0006B6840005B08C0186968F2E72F4B6968DA
:1013D0001C68102348081C4002D0364BC018E8E7B0
:1013E000354BC018FEF79AFE80B20F2302009A43D5
:1013F000130000072A68400F1843D0609BE7FFF7EF
:101400002BFCDDE76B68580880235B02DBE70124D7
:101410000020EAE7082C2CD82000FEF775FE050F07
:10142000122A222A2A2A2500FFF710FD69684B0894
:101430001818FEF773FE80B2F8609CE7FFF716FD00
:10144000F4E7124B69681C68102348081C4001D05F
:10145000174BEDE7134BC018FEF760FE80B2F86043
:1014600069E7FFF7F9FBE1E7802369681B02480899
:10147000DEE701245FE7C04600480040F369FFEF64
:10148000FFCFFFFFFFF4FFFF0038014000100240D4
:10149000D42B000800440040D82B0008004C00402A
:1014A000005000400024F40000FDFFFFFFFC0F008F
:1014B00000093D0000127A000048E801436A30B597
:1014C000DA0706D50168284C4A682240846A22431C
:1014D0004A609A0706D50168244C4A682240C46ACB
:1014E00022434A605A0706D50168214C4A682240C7
:1014F000046B22434A601A0706D501681D4C4A68EE
:101500002240446B22434A60DA0606D501681A4C31
:101510008A682240846B22438A609A0606D5016855
:10152000164C8A682240C46B22438A605A0610D542
:101530000168134D4A68046C2A4022434A608022A5
:101540005203944205D14A680E4C2240446C224317
:101550004A601B0606D502680B4953680B40816C34
:101560000B43536030BDC046FFFFFDFFFFFFFEFF92
:10157000FFFFFBFFFF7FFFFFFFEFFFFFFFDFFFFF2F
:10158000FFFFEFFFFFFF9FFFFFFFF7FFF8B504002E
:101590000E0015001F002268D36933409B1B59427F
:1015A0004B41AB4201D0002018E0069B0133F3D041
:1015B000069B002B13D123680C491A6803200A40AC
:1015C0001A609A68A331FF318A439A60220020236F
:1015D000693213705370002368342370F8BDFEF72E
:1015E0005FFF069BC01B8342D5D2E4E75FFEFFFF8F
:1015F000F0B5070085B0039369373B7804000D0010
:1016000016000220202B46D10138002943D0002AA1
:1016100041D08023A2685B019A4204D12369002B48
:1016200001D1014237D1230068331A780220012A00
:1016300031D001221A700023E36621333B70FEF79C
:101640002FFF230050331E805E808026029076019B
:10165000210052310A8892B2002A0DD1039B402109
:1016600000932000029BFFF791FF002812D1202356
:1016700068343B7020700EE00B880022013B9BB267
:101680000B80039B802100932000029BFFF77EFFCD
:10169000002802D0032005B0F0BDA3682268B34241
:1016A00008D12369002B05D12B880235DB05DB0D22
:1016B0009362CDE72B7801359362C9E773B50026B5
:1016C0000400C666FEF7ECFE236805001B681B07D6
:1016D00017D423681B685B070AD580210F4B0022B3
:1016E0000093C9032B002000FFF750FF002813D1FF
:1016F0002200202300206932683413705370207058
:101700000BE08021054B3200009389030300200089
:10171000FFF73CFF0028DCD0032076BDFFFFFF0170
:1017200070B5041E01D1012070BD050069352B780C
:10173000DBB2002B04D102006832137000F09AF97A
:101740002423012122682B7013688B431360636A82
:10175000002B02D02000FFF7B1FE2000FFF77EFD36
:101760000128E0D0236808495A6820000A402A214D
:101770005A609A688A439A60012219680A431A607B
:10178000FFF79CFFD0E7C046FFB7FFFF2149224A81
:101790000B6810B51A4080231B0113430B60102304
:1017A0009EB01093A0220F3B17930023120210A8A3
:1017B000189319921A93FEF7DFFF011E00D0FEE77F
:1017C0000F23029003900490059001A80193FFF766
:1017D0007FFA002800D0FEE7032309900A9006A8AC
:1017E0000693FFF753FB041E00D0FEE7FFF728FB2C
:1017F000FA218900FEF792FCFEF794FE0420FEF722
:10180000ABFE0120220021004042FEF75BFE1EB02D
:1018100010BDC04600700040FFE7FFFFF0B5132485
:101820000C278FB02200184909A800F0D9F93A0016
:10183000164901A800F0D4F901261222144904A87F
:1018400000F0CEF92200FA24124D7642330009A9A5
:1018500024012800FFF7CCFE2000FEF727FE33000E
:101860003A0001A92800FFF7C3FE2000FEF71EFE84
:101870003300122204A92800FFF7BAFE2000FEF769
:1018800015FE0FB0F0BDC046FF2B0008122C00085B
:101890001E2C00089400002070B50D0004001048B4
:1018A00000F02AFA0F4B2B4004D51022013B524284
:1018B000134301330F21EA170A4052191211123152
:1018C0000F2A01D80849895C217021220F2B01D8E9
:1018D000054AD25C6270054800F094F970BDC046BC
:1018E000302C00080F000080EF2B00084C2C000863
:1018F0007FB501AE04000D000A220A49300000F055
:101900006FF90023F25C002A09D12A78E2546A7840
:10191000E3185A700D23E372033B23737FBDE25437
:101920000133EFE7E52B000870B58AB0FEF7A0FDA4
:10193000FFF72CFF0420384B0125D96A002401430E
:10194000D962DA6AE12602400292029AD96A7C30B0
:101950000143D962DA6A20210240A0200392039A4F
:10196000DA6AC0052A43DA62DB6A00222B4004935C
:10197000049BFEF7C1FE80239B010593274B05A91D
:10198000274806930794FEF7FBFDA0202023C005FF
:1019900005A90593069507940894FEF7F1FD2148E3
:1019A000214B36020B35036046608460C4600461DD
:1019B00045618461C46104624462FFF7B1FEA042E4
:1019C00000D0FEE7194C1A4BA060E0602061A061D6
:1019D000E061206260622000236066606561FFF75D
:1019E0009FFE002800D0FEE70126FA25FFF716FF2C
:1019F00076422D0101A81921FFF74EFF01A905A884
:101A0000FFF776FF33000F2205A92000FFF7F0FD56
:101A10002800FEF74BFDEDE700100240000021100A
:101A20000008005004010020004400409400002001
:101A30000038014001220E4B10B5596B05200A43B6
:101A40005A638022996B52050A439A6300224042EE
:101A50001100FEF737FD0022022011004042FEF780
:101A600031FD0022012011004042FEF72BFD10BD88
:101A7000001002407FB50368134A934217D18023B8
:101A8000124ADB01516B0B435363C023DB0001930C
:101A9000022302930023A02003930333049301A99C
:101AA0000133C0050593FEF76BFD07B000BD084A82
:101AB0009342FAD18023054A9B02916B0B439363B7
:101AC0000C2301930A3BE4E7003801400010024078
:101AD000004400407047FEE77047704710B5FEF7BE
:101AE000D7FCFEF748FD10BD8022104B520019684C
:101AF0000A431A60DA680E490A40DA601A680D492A
:101B00000A4001211A609A688A439A601A680A4951
:101B10000A401A60DA6809490A40DA6000221A614C
:101B20008022074B12059A607047C04600100240A1
:101B30000C40FF88F6FFF6FEFFFFFBFFFFFF02FFF2
:101B400000ED00E00D488546002103E00C4B5B589A
:101B5000435004310B480C4B42189A42F6D30B4ABF
:101B600002E0002313600432094B9A42F9D3FFF7D5
:101B7000BBFF00F011F8FFF7D7FEFEE70050002092
:101B8000242D0008000000206800002068000020CC
:101B900078010020FEE7000070B500260C4D0D4CCA
:101BA000641BA410A64209D1002601F007F80A4DD3
:101BB0000A4C641BA410A64205D170BDB300EB58BB
:101BC00098470136EEE7B300EB5898470136F2E745
:101BD0001C2D00081C2D00081C2D0008202D0008BD
:101BE000002310B59A4200D110BDCC5CC45401331F
:101BF000F8E703008218934200D17047197001334F
:101C0000F9E700000FB40B4B13B51C68002C05D08E
:101C1000A369002B02D1200000F03CFA05AB049A26
:101C2000A1682000019300F007FC16BC08BC04B0BA
:101C30001847C0460400002070B505000E000028BB
:101C400004D08369002B01D100F024FAAB69AC68A1
:101C5000002B02D1280000F01DFA244B9C420FD12A
:101C60006C68A3891B0702D52369002B20D12100B2
:101C7000280000F0A1F800281AD00120404270BDD1
:101C80001B4B9C4201D1AC68EBE71A4B9C42E8D15C
:101C9000EC68E6E7013B0136A360002B04DAA26999
:101CA000934216DB0A2914D023685A1C226019704B
:101CB0003178A3680029EDD1013BA360002B0FDA36
:101CC00022000A31280000F021F8431CD5D00A2058
:101CD000D5E72200280000F019F8431CE8D1CCE732
:101CE0000A2023685A1C22601870C8E79C2C000840
:101CF000BC2C00087C2C000810B5034B01001868B0
:101D0000FFF79AFF10BDC04604000020F8B505009B
:101D10000E001400002804D08369002B01D100F0CC
:101D2000B9F9224B9C422DD16C68A369A360A389A9
:101D30001B0731D52369002B2ED023682269F7B207
:101D4000981A6369F6B2984205DB2100280000F07A
:101D500033F9002826D1A3680130013BA360236832
:101D60005A1C22601F706369984204D0A389DB0764
:101D70001AD50A2E18D12100280000F01DF90028DC
:101D800012D00FE00A4B9C4201D1AC68CDE7094B61
:101D90009C42CAD1EC68C8E72100280000F00CF88A
:101DA0000028CAD0012676423000F8BD9C2C0008DD
:101DB000BC2C00087C2C0008364B70B51D68060052
:101DC0000C00002D05D0AB69002B02D1280000F0DB
:101DD00061F9314B9C420FD16C680C23E25E93B2E7
:101DE00019072DD4D90611D40923012033603733C4
:101DF0001343A381404270BD284B9C4201D1AC6883
:101E0000EBE7274B9C42E8D1EC68E6E75B0713D58C
:101E1000616B002908D023004433994202D030007E
:101E200000F03AFA002363632422A3899343A38139
:101E300000236360236923600823A2891343A381DD
:101E40002369002B0BD1A0218022A3898900920055
:101E50000B40934203D02100300000F0D9F9012358
:101E6000A289134011D00023A36063695B42A36180
:101E7000002023698342BED10C23E25E1306BAD54B
:101E800040231343A3810138B5E7920700D4636967
:101E9000A360EDE7040000209C2C0008BC2C000887
:101EA0007C2C0008F7B58A8905000C00130760D464
:101EB0004B68002B04DC0B6C002B01DC0020FEBD0A
:101EC000E76A002FFAD000232E682B6080235B0185
:101ED0001A4034D0606DA3895B0706D56368C01AC9
:101EE000636B002B01D0236CC01A0200216A00230F
:101EF0002800E76AB847A189431C06D12B681D2B2F
:101F000031D82C4ADA40D3072DD5002363602369EA
:101F10002360CB0405D5431C02D12B68002B00D1D4
:101F20006065616B2E600029C8D02300443399425C
:101F300002D0280000F0B0F900206063BFE7012361
:101F4000216A2800B847431CC5D12B68002BC2D09A
:101F50001D2B01D0162B01D12E60AFE74023A289A3
:101F60001343A381ABE740230B430120A3814042ED
:101F7000A5E70F69002FA1D00B680F60DB1B019351
:101F80000023920700D14B69A360019B002B00DC6A
:101F900094E7019B3A00216A2800A66AB04700280E
:101FA00003DC4023A2891343DFE7019B3F181B1A80
:101FB0000193EAE7010040200B6970B505000C00B1
:101FC000002B01D1002070BD002804D08369002BB4
:101FD00001D100F05FF80B4B9C4209D16C680C22D8
:101FE000A35E002BEED021002800FFF75BFFEAE79D
:101FF000054B9C4201D1AC68F1E7044B9C42EED109
:10200000EC68ECE79C2C0008BC2C00087C2C000839
:1020100010B5024900F0B2F810BDC046B91F000863
:10202000002310B504000360436083608181436630
:10203000C281036143618361190008225C30FFF7AC
:10204000D8FD054B24626362044BA362044BE36238
:10205000044B236310BDC046A5290008CD29000804
:10206000052A0008312A000870B568254A1E554324
:102070000E002900743100F059F9041E08D0002127
:102080002A00016046600C30A0606832FFF7B1FDA5
:10209000200070BD836913B50400002B28D1836430
:1020A000C3640365134B144A1B6882620193984210
:1020B00001D101238361200000F020F8606020003E
:1020C00000F01CF8A060200000F018F80022E0608A
:1020D00004216068FFF7A4FF01220921A068FFF72F
:1020E0009FFF02221221E068FFF79AFF0123A361FC
:1020F00013BDC046DC2C000811200008F8B51E4BAB
:1021000007001E68B369002B02D13000FFF7C2FF41
:102110004836B4687368013B04D53368002B07D098
:102120003668F6E70C22A55E002D0DD06834F2E784
:1021300004213800FFF798FF30600028F0D10C230D
:1021400004003B602000F8BD012320005B42E381D6
:102150000233A38165662560A560656025616561C0
:10216000A561082229005C30FFF743FD6563A56384
:10217000A564E564E6E7C046DC2C0008F7B504007A
:102180000700002601914834002C01D13000FEBD2B
:102190006368A5680093009B013B009301D5246808
:1021A000F2E7AB89012B08D90E22AB5E013304D0D4
:1021B00029003800019B984706436835EBE700008B
:1021C00070B50E001D000E23C95E90B014000029EA
:1021D00007DA00232B60B3891B0611D48023DB00B0
:1021E0000FE001AA00F050FC0028F2DBF022029B75
:1021F00012021340054A9B185A4253412B60EDE7E7
:1022000040230020236010B070BDC04600E0FFFFF7
:10221000F7B502268B8905000C00334206D0230057
:1022200047332360236101236361F7BD01AB6A4635
:10223000FFF7C6FF00990700280000F077F8002894
:1022400008D10C22A35E9A05EFD4032293431E43C8
:10225000A681E4E70F4BAB628023A2892060134381
:10226000A381009B20616361019B002B0DD00E2395
:10227000E15E280000F01AFC002806D00322A389A2
:1022800093431A0001231343A381A0893843A081FB
:10229000CBE7C0461120000870B50500002910D01A
:1022A0000C1F2368002B00DAE418280000F02FFC34
:1022B0001D4A1368002B05D163601460280000F0EC
:1022C00027FC70BDA34209D9216860188342F3D16D
:1022D00018685B6841182160EEE713005A68002A0D
:1022E00001D0A242F9D919685818A0420BD1206830
:1022F0000918581819608242E0D1106852684118D4
:1023000019605A60DAE7A04202D90C232B60D5E7A6
:1023100021686018824203D1106852684118216018
:1023200062605C60CAE7C04684000020032370B589
:10233000CD1C9D43083506000C2D1ED20C25A9424C
:102340001DD8300000F0E3FB254A14682100002965
:1023500019D1244C2368002B03D1300000F010FB6E
:1023600020602900300000F00BFB431C2CD10C2313
:102370003000336000F0CCFB03E0002DDFDA0C23EB
:102380003360002070BD0B685B1B1AD40B2B03D984
:102390000B60CC18256003E08C420ED1636813609B
:1023A000300000F0B5FB200007220B30231D9043C6
:1023B000C31AE7D05A42E250E4E74B6863600C006E
:1023C000EEE70C004968C2E70323C41C9C43A0420B
:1023D000E0D0211A300000F0D3FA431CDAD1C6E76E
:1023E0008400002088000020936810B5013B9360B2
:1023F000002B05DA9469A34208DBCBB20A2B05D087
:102400001368581C10601970C8B210BDFFF77EFC2D
:10241000FBE7F8B506000F001400D518AC4201D157
:10242000002007E021783A003000FFF7DDFF01349B
:10243000431CF3D1F8BD0000F0B59FB006000F00BB
:1024400014000593002804D08369002B01D1FFF705
:1024500021FE7F4B9F425CD17768BB891B0762D509
:102460003B69002B5FD0002306AD6B6120336B7698
:102470001033AB760294029C2378002B5DD1029B33
:10248000E31A04930DD0049B029A39003000FFF741
:10249000C0FF431C00D1CCE06A69049B94466344AE
:1024A0006B612378002B00D1C3E00122002352424C
:1024B0006A6002A95432521801342B60EB60AB60A1
:1024C0001370AB6521780522624800F015FB631C90
:1024D0009C46002835D12968CB0604D5532302AA8F
:1024E00020309B1818700B0704D553232B2002AA09
:1024F0009B18187023782A2B2CD000200A21099BC6
:102500002278303A092A00D86BE000282AD00993B3
:1025100028E0514B9F4201D1B7689EE74F4B9F4245
:102520009BD1F76899E739003000FFF745FC002898
:1025300099D0012040421FB0F0BD252B9FD001341F
:102540009AE7444B2968C01A012383400B432B6050
:102550006446B7E7059B181D1B680590002B3ADB06
:102560000993644623782E2B0BD16378621C2A2BA7
:102570003FD1059B02341A1D1B680592002B35DBE9
:10258000079321780322364800F0B6FA002807D0D6
:10259000334B2A68C01A4023834013432B60013415
:1025A0002178631C06222F480293297600F0A4FAB2
:1025B000002844D02C4B002B2FD12968059B0722E3
:1025C000C90528D59B189343083305936B69039A73
:1025D0009B186B614FE75B42EB6002230B432B6060
:1025E000BFE74B4301349B18012089E701235B427D
:1025F000C6E7002314000A201A006B6021783039E6
:10260000092903D9002BBCD00792BAE74243013411
:1026100052180123F2E70733D5E705AB00933A00E0
:10262000124B2900300000E000BF0390039B0133F0
:10263000CCD1BB895B0600D57BE70B987BE705AB6C
:1026400000933A00094B2900300000F07FF8ECE7D6
:102650009C2C0008E02C0008BC2C00087C2C0008F6
:10266000E62C0008EA2C00080000000013240008F3
:10267000F7B5150001938A680B6900900C0093422E
:1026800000DA130022002B6043321278002A01D0B6
:1026900001332B6023689B0602D52B6802332B6025
:1026A000062723681F4027D0230043331B785A1E78
:1026B00093412268920630D4220001994332009857
:1026C000089EB047431C25D0062320682A68E1688D
:1026D00003400025042B03D18D1AEB43DB171D406B
:1026E000A3682269934201DD9B1AED180027BD42C1
:1026F00020D1002010E00137E3682A689B1A9F422E
:10270000D2DA22000123193201990098089EB047BD
:10271000431CF0D101204042FEBD3020E11843317E
:10272000087021005A1C45310978A218433202333F
:102730001170C1E7220001231A3201990098089E06
:10274000B047431CE6D00137D1E70000F0B58BB0AD
:1027500006920A0043320793059004920A7E0C0009
:10276000109B6E2A00D18FE017D8632A2CD008D88E
:10277000002A00D199E0582A54D0260042363270FF
:1027800029E0642A01D0692AF7D121681A6808066D
:1027900023D5111D1960156825E0732A00D188E042
:1027A00008D86F2A29D0702AE7D1202209680A4365
:1027B000226003E0752A20D0782ADED12200782119
:1027C000453211706C4A30E00E001A684236111D15
:1027D000196013683370012379E04906D9D5111DBA
:1027E00019600023D55E002D03DA2D23049A6D4273
:1027F0001370624B0A2703932FE0206819680506BF
:1028000003D5081D18600D6805E04006F9D50D6870
:10281000081D1860ADB2594B082703936F2A18D0D2
:102820000A2716E045310A70544A03921A68216853
:10283000101D18601568080622D5CB0702D5202385
:10284000194321601027002D03D1202322689A43C9
:1028500022602300002243331A706368A360002BB8
:102860005CDB0422216891432160002D58D1049E35
:10287000002B64D02600039B42361B7833705EE049
:102880004806DAD5ADB2D8E709681A68080605D552
:10289000111D1960136862691A6006E04906F7D5D0
:1028A000111D19601368A28A1A800023049E2361F7
:1028B00054E01A68111D1960166800216268300022
:1028C00000F01AF9002801D0801B60606368236162
:1028D0000023049A137041E0236932000699059899
:1028E000079DA847431C43D0236800259B070FD4AE
:1028F000099BE06898423DDA18003BE02200012382
:10290000193206990598079EB047431C30D001350F
:10291000E368099A9B1A9D42F0DBE9E7002DA9D0F4
:10292000049E28003900FDF77FFC039B013E5B5CA1
:10293000280033703900FDF7F1FB051EF1D1082F97
:1029400009D12368DB0706D563682269934202DC5C
:102950003023013E3370049B9B1B2361079B09AA14
:1029600000932100069B0598FFF782FE431CB3D11C
:10297000012040420BB0F0BD022D0008F12C0008F0
:10298000002370B5064C05000800236000F0FEF837
:10299000431C03D12368002B00D02B6070BDC046C0
:1029A0007401002070B50C000E25495F00F0B2F8EC
:1029B000002803DB636D1B18636570BDA389024AA1
:1029C0001340A381F9E7C046FFEFFFFFF8B51F00F2
:1029D0008B8905000C001600DB0505D50E23C95EAA
:1029E0000022022300F074F8A389054A280013404E
:1029F000A38132000E23E15E3B0000F01FF8F8BD1A
:102A0000FFEFFFFF70B50C000E25495F00F060F886
:102A1000A389421C03D1054A1340A38170BD8022C3
:102A200052011343A3816065F8E7C046FFEFFFFF43
:102A300010B50E23C95E00F015F810BD70B5050085
:102A4000080011000022064C22601A0000F0AEF8C7
:102A5000431C03D12368002B00D02B6070BDC046FF
:102A600074010020002370B5064C050008002360A7
:102A700000F064F8431C03D12368002B00D02B60C6
:102A800070BDC04674010020002370B5064C0500DF
:102A900008001100236000F059F8431C03D123689B
:102AA000002B00D02B6070BD74010020002370B596
:102AB000064C05000800236000F050F8431C03D1C9
:102AC0002368002B00D02B6070BDC046740100202D
:102AD00070B50500080011000022064C22601A00A3
:102AE00000F044F8431C03D12368002B00D02B6076
:102AF00070BDC04674010020C9B28218904201D155
:102B00000020704703788B42FBD00130F6E7704716
:102B10007047000070B50500080011000022064C47
:102B200022601A0000F02AF8431C03D12368002B0E
:102B300000D02B6070BDC0467401002058220120D7
:102B4000014B40421A607047740100205822012056
:102B5000014B40421A607047740100205822024B1A
:102B600000201A607047C0467401002058220120DE
:102B7000014B40421A607047740100205822012026
:102B8000014B40421A60704774010020054B02005F
:102B90001968002901D104491960186882181A605F
:102BA0007047C0468C000020780100205822012088
:102BB000014B40421A60704774010020F8B5C046CE
:102BC000F8BC08BC9E467047F8B5C046F8BC08BCC7
:042BD0009E46704766
:102BD400010402080010101004101010021010104C
:102BE40008726164696F20747820003031323334A4
:102BF4003536373839414243444546737973206644
:102C04006163746F727952455345540D0A006D61C6
:102C1400632070617573650D0A00726164696F20C9
:102C24007365742077647420300D0A004E6F6D62F2
:102C340072652062696E6169726520656E20636FDA
:102C4400757273202E2E2E0048657861203A202557
:102C54006325630A00000000000000000001020375
:102C64000406070809000000000102030403040627
:102C7400080C1018203000000000000000000000C4
:102C84000000000000000000000000000000000040
:102C94000000000000000000000000000000000030
:102CA4000000000000000000000000000000000020
:102CB4000000000000000000000000000000000010
:102CC4000000000000000000000000000000000000
:102CD400000000000000000008000020232D302B1D
:102CE4002000686C4C006566674546470030313209
:102CF4003334353637383941424344454600303160
:102D040032333435363738396162636465660000BE
:082D140060D5FF7F0100000003
:042D1C00E9000008C2
:042D2000C1000008E6
:102D240080841E0008000020000000009C2C000885
:102D3400BC2C00087C2C00080000000000000000EF
:102D4400000000000000000000000000000000007F
:102D5400000000000000000000000000000000006F
:102D6400000000000000000000000000000000005F
:102D7400000000000000000000000000000000004F
:082D8400000000000000000047
:0400000508001B458F
:00000001FF
